{
  "_format": "hh-sol-artifact-1",
  "contractName": "TestERC20",
  "sourceName": "contracts/token/TestERC20.sol",
  "abi": [
    {
      "anonymous": false,
      "inputs": [
        {
          "indexed": true,
          "internalType": "address",
          "name": "owner",
          "type": "address"
        },
        {
          "indexed": true,
          "internalType": "address",
          "name": "spender",
          "type": "address"
        },
        {
          "indexed": false,
          "internalType": "uint256",
          "name": "value",
          "type": "uint256"
        }
      ],
      "name": "Approval",
      "type": "event"
    },
    {
      "anonymous": false,
      "inputs": [
        {
          "indexed": true,
          "internalType": "address",
          "name": "from",
          "type": "address"
        },
        {
          "indexed": true,
          "internalType": "address",
          "name": "to",
          "type": "address"
        },
        {
          "indexed": false,
          "internalType": "uint256",
          "name": "value",
          "type": "uint256"
        }
      ],
      "name": "Transfer",
      "type": "event"
    },
    {
      "inputs": [
        {
          "internalType": "string",
          "name": "name_",
          "type": "string"
        },
        {
          "internalType": "string",
          "name": "symbol_",
          "type": "string"
        }
      ],
      "name": "__ERC20_init",
      "outputs": [],
      "stateMutability": "nonpayable",
      "type": "function"
    },
    {
      "inputs": [
        {
          "internalType": "address",
          "name": "owner",
          "type": "address"
        },
        {
          "internalType": "address",
          "name": "spender",
          "type": "address"
        }
      ],
      "name": "allowance",
      "outputs": [
        {
          "internalType": "uint256",
          "name": "",
          "type": "uint256"
        }
      ],
      "stateMutability": "view",
      "type": "function"
    },
    {
      "inputs": [
        {
          "internalType": "address",
          "name": "spender",
          "type": "address"
        },
        {
          "internalType": "uint256",
          "name": "amount",
          "type": "uint256"
        }
      ],
      "name": "approve",
      "outputs": [
        {
          "internalType": "bool",
          "name": "",
          "type": "bool"
        }
      ],
      "stateMutability": "nonpayable",
      "type": "function"
    },
    {
      "inputs": [
        {
          "internalType": "address",
          "name": "account",
          "type": "address"
        }
      ],
      "name": "balanceOf",
      "outputs": [
        {
          "internalType": "uint256",
          "name": "",
          "type": "uint256"
        }
      ],
      "stateMutability": "view",
      "type": "function"
    },
    {
      "inputs": [],
      "name": "decimals",
      "outputs": [
        {
          "internalType": "uint8",
          "name": "",
          "type": "uint8"
        }
      ],
      "stateMutability": "view",
      "type": "function"
    },
    {
      "inputs": [
        {
          "internalType": "address",
          "name": "spender",
          "type": "address"
        },
        {
          "internalType": "uint256",
          "name": "subtractedValue",
          "type": "uint256"
        }
      ],
      "name": "decreaseAllowance",
      "outputs": [
        {
          "internalType": "bool",
          "name": "",
          "type": "bool"
        }
      ],
      "stateMutability": "nonpayable",
      "type": "function"
    },
    {
      "inputs": [
        {
          "internalType": "address",
          "name": "spender",
          "type": "address"
        },
        {
          "internalType": "uint256",
          "name": "addedValue",
          "type": "uint256"
        }
      ],
      "name": "increaseAllowance",
      "outputs": [
        {
          "internalType": "bool",
          "name": "",
          "type": "bool"
        }
      ],
      "stateMutability": "nonpayable",
      "type": "function"
    },
    {
      "inputs": [
        {
          "internalType": "address",
          "name": "to",
          "type": "address"
        },
        {
          "internalType": "uint256",
          "name": "amount",
          "type": "uint256"
        }
      ],
      "name": "mint",
      "outputs": [],
      "stateMutability": "nonpayable",
      "type": "function"
    },
    {
      "inputs": [],
      "name": "name",
      "outputs": [
        {
          "internalType": "string",
          "name": "",
          "type": "string"
        }
      ],
      "stateMutability": "view",
      "type": "function"
    },
    {
      "inputs": [],
      "name": "symbol",
      "outputs": [
        {
          "internalType": "string",
          "name": "",
          "type": "string"
        }
      ],
      "stateMutability": "view",
      "type": "function"
    },
    {
      "inputs": [],
      "name": "totalSupply",
      "outputs": [
        {
          "internalType": "uint256",
          "name": "",
          "type": "uint256"
        }
      ],
      "stateMutability": "view",
      "type": "function"
    },
    {
      "inputs": [
        {
          "internalType": "address",
          "name": "recipient",
          "type": "address"
        },
        {
          "internalType": "uint256",
          "name": "amount",
          "type": "uint256"
        }
      ],
      "name": "transfer",
      "outputs": [
        {
          "internalType": "bool",
          "name": "",
          "type": "bool"
        }
      ],
      "stateMutability": "nonpayable",
      "type": "function"
    },
    {
      "inputs": [
        {
          "internalType": "address",
          "name": "sender",
          "type": "address"
        },
        {
          "internalType": "address",
          "name": "recipient",
          "type": "address"
        },
        {
          "internalType": "uint256",
          "name": "amount",
          "type": "uint256"
        }
      ],
      "name": "transferFrom",
      "outputs": [
        {
          "internalType": "bool",
          "name": "",
          "type": "bool"
        }
      ],
      "stateMutability": "nonpayable",
      "type": "function"
    }
  ],
  "bytecode": "0x608060405234801561001057600080fd5b50611a2f806100206000396000f3fe608060405234801561001057600080fd5b50600436106100cf5760003560e01c806340c10f191161008c57806395d89b411161006657806395d89b4114610226578063a457c2d714610244578063a9059cbb14610274578063dd62ed3e146102a4576100cf565b806340c10f19146101be578063678bd718146101da57806370a08231146101f6576100cf565b806306fdde03146100d4578063095ea7b3146100f257806318160ddd1461012257806323b872dd14610140578063313ce56714610170578063395093511461018e575b600080fd5b6100dc6102d4565b6040516100e991906115e5565b60405180910390f35b61010c6004803603810190610107919061114c565b610366565b60405161011991906115ca565b60405180910390f35b61012a610384565b6040516101379190611727565b60405180910390f35b61015a600480360381019061015591906110fd565b61038e565b60405161016791906115ca565b60405180910390f35b61017861048f565b6040516101859190611742565b60405180910390f35b6101a860048036038101906101a3919061114c565b610498565b6040516101b591906115ca565b60405180910390f35b6101d860048036038101906101d3919061114c565b610544565b005b6101f460048036038101906101ef9190611188565b610552565b005b610210600480360381019061020b9190611098565b610637565b60405161021d9190611727565b60405180910390f35b61022e610680565b60405161023b91906115e5565b60405180910390f35b61025e6004803603810190610259919061114c565b610712565b60405161026b91906115ca565b60405180910390f35b61028e6004803603810190610289919061114c565b610806565b60405161029b91906115ca565b60405180910390f35b6102be60048036038101906102b991906110c1565b610824565b6040516102cb9190611727565b60405180910390f35b6060600480546102e3906118fb565b80601f016020809104026020016040519081016040528092919081815260200182805461030f906118fb565b801561035c5780601f106103315761010080835404028352916020019161035c565b820191906000526020600020905b81548152906001019060200180831161033f57829003601f168201915b5050505050905090565b600061037a6103736108ab565b84846108b3565b6001905092915050565b6000600354905090565b600061039b848484610a7e565b6000600260008673ffffffffffffffffffffffffffffffffffffffff1673ffffffffffffffffffffffffffffffffffffffff16815260200190815260200160002060006103e66108ab565b73ffffffffffffffffffffffffffffffffffffffff1673ffffffffffffffffffffffffffffffffffffffff16815260200190815260200160002054905082811015610466576040517f08c379a000000000000000000000000000000000000000000000000000000000815260040161045d90611687565b60405180910390fd5b610483856104726108ab565b858461047e9190611830565b6108b3565b60019150509392505050565b60006012905090565b600061053a6104a56108ab565b8484600260006104b36108ab565b73ffffffffffffffffffffffffffffffffffffffff1673ffffffffffffffffffffffffffffffffffffffff16815260200190815260200160002060008873ffffffffffffffffffffffffffffffffffffffff1673ffffffffffffffffffffffffffffffffffffffff1681526020019081526020016000205461053591906117da565b6108b3565b6001905092915050565b61054e8282610d00565b5050565b600060019054906101000a900460ff1680610578575060008054906101000a900460ff16155b6105b7576040517f08c379a00000000000000000000000000000000000000000000000000000000081526004016105ae90611667565b60405180910390fd5b60008060019054906101000a900460ff161590508015610607576001600060016101000a81548160ff02191690831515021790555060016000806101000a81548160ff0219169083151502179055505b6106118383610e55565b80156106325760008060016101000a81548160ff0219169083151502179055505b505050565b6000600160008373ffffffffffffffffffffffffffffffffffffffff1673ffffffffffffffffffffffffffffffffffffffff168152602001908152602001600020549050919050565b60606005805461068f906118fb565b80601f01602080910402602001604051908101604052809291908181526020018280546106bb906118fb565b80156107085780601f106106dd57610100808354040283529160200191610708565b820191906000526020600020905b8154815290600101906020018083116106eb57829003601f168201915b5050505050905090565b600080600260006107216108ab565b73ffffffffffffffffffffffffffffffffffffffff1673ffffffffffffffffffffffffffffffffffffffff16815260200190815260200160002060008573ffffffffffffffffffffffffffffffffffffffff1673ffffffffffffffffffffffffffffffffffffffff168152602001908152602001600020549050828110156107de576040517f08c379a00000000000000000000000000000000000000000000000000000000081526004016107d5906116e7565b60405180910390fd5b6107fb6107e96108ab565b8585846107f69190611830565b6108b3565b600191505092915050565b600061081a6108136108ab565b8484610a7e565b6001905092915050565b6000600260008473ffffffffffffffffffffffffffffffffffffffff1673ffffffffffffffffffffffffffffffffffffffff16815260200190815260200160002060008373ffffffffffffffffffffffffffffffffffffffff1673ffffffffffffffffffffffffffffffffffffffff16815260200190815260200160002054905092915050565b600033905090565b600073ffffffffffffffffffffffffffffffffffffffff168373ffffffffffffffffffffffffffffffffffffffff161415610923576040517f08c379a000000000000000000000000000000000000000000000000000000000815260040161091a906116c7565b60405180910390fd5b600073ffffffffffffffffffffffffffffffffffffffff168273ffffffffffffffffffffffffffffffffffffffff161415610993576040517f08c379a000000000000000000000000000000000000000000000000000000000815260040161098a90611627565b60405180910390fd5b80600260008573ffffffffffffffffffffffffffffffffffffffff1673ffffffffffffffffffffffffffffffffffffffff16815260200190815260200160002060008473ffffffffffffffffffffffffffffffffffffffff1673ffffffffffffffffffffffffffffffffffffffff168152602001908152602001600020819055508173ffffffffffffffffffffffffffffffffffffffff168373ffffffffffffffffffffffffffffffffffffffff167f8c5be1e5ebec7d5bd14f71427d1e84f3dd0314c0f7b2291e5b200ac8c7c3b92583604051610a719190611727565b60405180910390a3505050565b600073ffffffffffffffffffffffffffffffffffffffff168373ffffffffffffffffffffffffffffffffffffffff161415610aee576040517f08c379a0000000000000000000000000000000000000000000000000000000008152600401610ae5906116a7565b60405180910390fd5b600073ffffffffffffffffffffffffffffffffffffffff168273ffffffffffffffffffffffffffffffffffffffff161415610b5e576040517f08c379a0000000000000000000000000000000000000000000000000000000008152600401610b5590611607565b60405180910390fd5b610b69838383610f5e565b6000600160008573ffffffffffffffffffffffffffffffffffffffff1673ffffffffffffffffffffffffffffffffffffffff16815260200190815260200160002054905081811015610bf0576040517f08c379a0000000000000000000000000000000000000000000000000000000008152600401610be790611647565b60405180910390fd5b8181610bfc9190611830565b600160008673ffffffffffffffffffffffffffffffffffffffff1673ffffffffffffffffffffffffffffffffffffffff1681526020019081526020016000208190555081600160008573ffffffffffffffffffffffffffffffffffffffff1673ffffffffffffffffffffffffffffffffffffffff1681526020019081526020016000206000828254610c8e91906117da565b925050819055508273ffffffffffffffffffffffffffffffffffffffff168473ffffffffffffffffffffffffffffffffffffffff167fddf252ad1be2c89b69c2b068fc378daa952ba7f163c4a11628f55a4df523b3ef84604051610cf29190611727565b60405180910390a350505050565b600073ffffffffffffffffffffffffffffffffffffffff168273ffffffffffffffffffffffffffffffffffffffff161415610d70576040517f08c379a0000000000000000000000000000000000000000000000000000000008152600401610d6790611707565b60405180910390fd5b610d7c60008383610f5e565b8060036000828254610d8e91906117da565b9250508190555080600160008473ffffffffffffffffffffffffffffffffffffffff1673ffffffffffffffffffffffffffffffffffffffff1681526020019081526020016000206000828254610de491906117da565b925050819055508173ffffffffffffffffffffffffffffffffffffffff16600073ffffffffffffffffffffffffffffffffffffffff167fddf252ad1be2c89b69c2b068fc378daa952ba7f163c4a11628f55a4df523b3ef83604051610e499190611727565b60405180910390a35050565b600060019054906101000a900460ff1680610e7b575060008054906101000a900460ff16155b610eba576040517f08c379a0000000000000000000000000000000000000000000000000000000008152600401610eb190611667565b60405180910390fd5b60008060019054906101000a900460ff161590508015610f0a576001600060016101000a81548160ff02191690831515021790555060016000806101000a81548160ff0219169083151502179055505b8260049080519060200190610f20929190610f63565b508160059080519060200190610f37929190610f63565b508015610f595760008060016101000a81548160ff0219169083151502179055505b505050565b505050565b828054610f6f906118fb565b90600052602060002090601f016020900481019282610f915760008555610fd8565b82601f10610faa57805160ff1916838001178555610fd8565b82800160010185558215610fd8579182015b82811115610fd7578251825591602001919060010190610fbc565b5b509050610fe59190610fe9565b5090565b5b80821115611002576000816000905550600101610fea565b5090565b60006110196110148461178e565b61175d565b90508281526020810184848401111561103157600080fd5b61103c8482856118b9565b509392505050565b600081359050611053816119cb565b92915050565b600082601f83011261106a57600080fd5b813561107a848260208601611006565b91505092915050565b600081359050611092816119e2565b92915050565b6000602082840312156110aa57600080fd5b60006110b884828501611044565b91505092915050565b600080604083850312156110d457600080fd5b60006110e285828601611044565b92505060206110f385828601611044565b9150509250929050565b60008060006060848603121561111257600080fd5b600061112086828701611044565b935050602061113186828701611044565b925050604061114286828701611083565b9150509250925092565b6000806040838503121561115f57600080fd5b600061116d85828601611044565b925050602061117e85828601611083565b9150509250929050565b6000806040838503121561119b57600080fd5b600083013567ffffffffffffffff8111156111b557600080fd5b6111c185828601611059565b925050602083013567ffffffffffffffff8111156111de57600080fd5b6111ea85828601611059565b9150509250929050565b6111fd81611876565b82525050565b600061120e826117be565b61121881856117c9565b93506112288185602086016118c8565b611231816119ba565b840191505092915050565b60006112496023836117c9565b91507f45524332303a207472616e7366657220746f20746865207a65726f206164647260008301527f65737300000000000000000000000000000000000000000000000000000000006020830152604082019050919050565b60006112af6022836117c9565b91507f45524332303a20617070726f766520746f20746865207a65726f20616464726560008301527f73730000000000000000000000000000000000000000000000000000000000006020830152604082019050919050565b60006113156026836117c9565b91507f45524332303a207472616e7366657220616d6f756e742065786365656473206260008301527f616c616e636500000000000000000000000000000000000000000000000000006020830152604082019050919050565b600061137b602e836117c9565b91507f496e697469616c697a61626c653a20636f6e747261637420697320616c72656160008301527f647920696e697469616c697a65640000000000000000000000000000000000006020830152604082019050919050565b60006113e16028836117c9565b91507f45524332303a207472616e7366657220616d6f756e742065786365656473206160008301527f6c6c6f77616e63650000000000000000000000000000000000000000000000006020830152604082019050919050565b60006114476025836117c9565b91507f45524332303a207472616e736665722066726f6d20746865207a65726f20616460008301527f64726573730000000000000000000000000000000000000000000000000000006020830152604082019050919050565b60006114ad6024836117c9565b91507f45524332303a20617070726f76652066726f6d20746865207a65726f2061646460008301527f72657373000000000000000000000000000000000000000000000000000000006020830152604082019050919050565b60006115136025836117c9565b91507f45524332303a2064656372656173656420616c6c6f77616e63652062656c6f7760008301527f207a65726f0000000000000000000000000000000000000000000000000000006020830152604082019050919050565b6000611579601f836117c9565b91507f45524332303a206d696e7420746f20746865207a65726f2061646472657373006000830152602082019050919050565b6115b5816118a2565b82525050565b6115c4816118ac565b82525050565b60006020820190506115df60008301846111f4565b92915050565b600060208201905081810360008301526115ff8184611203565b905092915050565b600060208201905081810360008301526116208161123c565b9050919050565b60006020820190508181036000830152611640816112a2565b9050919050565b6000602082019050818103600083015261166081611308565b9050919050565b600060208201905081810360008301526116808161136e565b9050919050565b600060208201905081810360008301526116a0816113d4565b9050919050565b600060208201905081810360008301526116c08161143a565b9050919050565b600060208201905081810360008301526116e0816114a0565b9050919050565b6000602082019050818103600083015261170081611506565b9050919050565b600060208201905081810360008301526117208161156c565b9050919050565b600060208201905061173c60008301846115ac565b92915050565b600060208201905061175760008301846115bb565b92915050565b6000604051905081810181811067ffffffffffffffff821117156117845761178361198b565b5b8060405250919050565b600067ffffffffffffffff8211156117a9576117a861198b565b5b601f19601f8301169050602081019050919050565b600081519050919050565b600082825260208201905092915050565b60006117e5826118a2565b91506117f0836118a2565b9250827fffffffffffffffffffffffffffffffffffffffffffffffffffffffffffffffff038211156118255761182461192d565b5b828201905092915050565b600061183b826118a2565b9150611846836118a2565b9250828210156118595761185861192d565b5b828203905092915050565b600061186f82611882565b9050919050565b60008115159050919050565b600073ffffffffffffffffffffffffffffffffffffffff82169050919050565b6000819050919050565b600060ff82169050919050565b82818337600083830152505050565b60005b838110156118e65780820151818401526020810190506118cb565b838111156118f5576000848401525b50505050565b6000600282049050600182168061191357607f821691505b602082108114156119275761192661195c565b5b50919050565b7f4e487b7100000000000000000000000000000000000000000000000000000000600052601160045260246000fd5b7f4e487b7100000000000000000000000000000000000000000000000000000000600052602260045260246000fd5b7f4e487b7100000000000000000000000000000000000000000000000000000000600052604160045260246000fd5b6000601f19601f8301169050919050565b6119d481611864565b81146119df57600080fd5b50565b6119eb816118a2565b81146119f657600080fd5b5056fea264697066735822122062a0e6805d16b006420a224cf495c27ba1b99cd1fdfb9d3cf6069e56533255b164736f6c63430008000033",
  "linkReferences": {},
  "deployedLinkReferences": {}
}