{
  "_format": "hh-sol-artifact-1",
  "contractName": "ERC20",
  "sourceName": "contracts/token/ERC20.sol",
  "abi": [
    {
      "anonymous": false,
      "inputs": [
        {
          "indexed": true,
          "internalType": "address",
          "name": "owner",
          "type": "address"
        },
        {
          "indexed": true,
          "internalType": "address",
          "name": "spender",
          "type": "address"
        },
        {
          "indexed": false,
          "internalType": "uint256",
          "name": "value",
          "type": "uint256"
        }
      ],
      "name": "Approval",
      "type": "event"
    },
    {
      "anonymous": false,
      "inputs": [
        {
          "indexed": true,
          "internalType": "address",
          "name": "from",
          "type": "address"
        },
        {
          "indexed": true,
          "internalType": "address",
          "name": "to",
          "type": "address"
        },
        {
          "indexed": false,
          "internalType": "uint256",
          "name": "value",
          "type": "uint256"
        }
      ],
      "name": "Transfer",
      "type": "event"
    },
    {
      "inputs": [
        {
          "internalType": "string",
          "name": "name_",
          "type": "string"
        },
        {
          "internalType": "string",
          "name": "symbol_",
          "type": "string"
        }
      ],
      "name": "__ERC20_init",
      "outputs": [],
      "stateMutability": "nonpayable",
      "type": "function"
    },
    {
      "inputs": [
        {
          "internalType": "address",
          "name": "owner",
          "type": "address"
        },
        {
          "internalType": "address",
          "name": "spender",
          "type": "address"
        }
      ],
      "name": "allowance",
      "outputs": [
        {
          "internalType": "uint256",
          "name": "",
          "type": "uint256"
        }
      ],
      "stateMutability": "view",
      "type": "function"
    },
    {
      "inputs": [
        {
          "internalType": "address",
          "name": "spender",
          "type": "address"
        },
        {
          "internalType": "uint256",
          "name": "amount",
          "type": "uint256"
        }
      ],
      "name": "approve",
      "outputs": [
        {
          "internalType": "bool",
          "name": "",
          "type": "bool"
        }
      ],
      "stateMutability": "nonpayable",
      "type": "function"
    },
    {
      "inputs": [
        {
          "internalType": "address",
          "name": "account",
          "type": "address"
        }
      ],
      "name": "balanceOf",
      "outputs": [
        {
          "internalType": "uint256",
          "name": "",
          "type": "uint256"
        }
      ],
      "stateMutability": "view",
      "type": "function"
    },
    {
      "inputs": [],
      "name": "decimals",
      "outputs": [
        {
          "internalType": "uint8",
          "name": "",
          "type": "uint8"
        }
      ],
      "stateMutability": "view",
      "type": "function"
    },
    {
      "inputs": [
        {
          "internalType": "address",
          "name": "spender",
          "type": "address"
        },
        {
          "internalType": "uint256",
          "name": "subtractedValue",
          "type": "uint256"
        }
      ],
      "name": "decreaseAllowance",
      "outputs": [
        {
          "internalType": "bool",
          "name": "",
          "type": "bool"
        }
      ],
      "stateMutability": "nonpayable",
      "type": "function"
    },
    {
      "inputs": [
        {
          "internalType": "address",
          "name": "spender",
          "type": "address"
        },
        {
          "internalType": "uint256",
          "name": "addedValue",
          "type": "uint256"
        }
      ],
      "name": "increaseAllowance",
      "outputs": [
        {
          "internalType": "bool",
          "name": "",
          "type": "bool"
        }
      ],
      "stateMutability": "nonpayable",
      "type": "function"
    },
    {
      "inputs": [],
      "name": "name",
      "outputs": [
        {
          "internalType": "string",
          "name": "",
          "type": "string"
        }
      ],
      "stateMutability": "view",
      "type": "function"
    },
    {
      "inputs": [],
      "name": "symbol",
      "outputs": [
        {
          "internalType": "string",
          "name": "",
          "type": "string"
        }
      ],
      "stateMutability": "view",
      "type": "function"
    },
    {
      "inputs": [],
      "name": "totalSupply",
      "outputs": [
        {
          "internalType": "uint256",
          "name": "",
          "type": "uint256"
        }
      ],
      "stateMutability": "view",
      "type": "function"
    },
    {
      "inputs": [
        {
          "internalType": "address",
          "name": "recipient",
          "type": "address"
        },
        {
          "internalType": "uint256",
          "name": "amount",
          "type": "uint256"
        }
      ],
      "name": "transfer",
      "outputs": [
        {
          "internalType": "bool",
          "name": "",
          "type": "bool"
        }
      ],
      "stateMutability": "nonpayable",
      "type": "function"
    },
    {
      "inputs": [
        {
          "internalType": "address",
          "name": "sender",
          "type": "address"
        },
        {
          "internalType": "address",
          "name": "recipient",
          "type": "address"
        },
        {
          "internalType": "uint256",
          "name": "amount",
          "type": "uint256"
        }
      ],
      "name": "transferFrom",
      "outputs": [
        {
          "internalType": "bool",
          "name": "",
          "type": "bool"
        }
      ],
      "stateMutability": "nonpayable",
      "type": "function"
    }
  ],
  "bytecode": "0x608060405234801561001057600080fd5b50611835806100206000396000f3fe608060405234801561001057600080fd5b50600436106100b45760003560e01c8063678bd71811610071578063678bd718146101a357806370a08231146101bf57806395d89b41146101ef578063a457c2d71461020d578063a9059cbb1461023d578063dd62ed3e1461026d576100b4565b806306fdde03146100b9578063095ea7b3146100d757806318160ddd1461010757806323b872dd14610125578063313ce567146101555780633950935114610173575b600080fd5b6100c161029d565b6040516100ce919061140b565b60405180910390f35b6100f160048036038101906100ec9190610fb2565b61032f565b6040516100fe91906113f0565b60405180910390f35b61010f61034d565b60405161011c919061152d565b60405180910390f35b61013f600480360381019061013a9190610f63565b610357565b60405161014c91906113f0565b60405180910390f35b61015d610458565b60405161016a9190611548565b60405180910390f35b61018d60048036038101906101889190610fb2565b610461565b60405161019a91906113f0565b60405180910390f35b6101bd60048036038101906101b89190610fee565b61050d565b005b6101d960048036038101906101d49190610efe565b6105f2565b6040516101e6919061152d565b60405180910390f35b6101f761063b565b604051610204919061140b565b60405180910390f35b61022760048036038101906102229190610fb2565b6106cd565b60405161023491906113f0565b60405180910390f35b61025760048036038101906102529190610fb2565b6107c1565b60405161026491906113f0565b60405180910390f35b61028760048036038101906102829190610f27565b6107df565b604051610294919061152d565b60405180910390f35b6060600480546102ac90611701565b80601f01602080910402602001604051908101604052809291908181526020018280546102d890611701565b80156103255780601f106102fa57610100808354040283529160200191610325565b820191906000526020600020905b81548152906001019060200180831161030857829003601f168201915b5050505050905090565b600061034361033c610866565b848461086e565b6001905092915050565b6000600354905090565b6000610364848484610a39565b6000600260008673ffffffffffffffffffffffffffffffffffffffff1673ffffffffffffffffffffffffffffffffffffffff16815260200190815260200160002060006103af610866565b73ffffffffffffffffffffffffffffffffffffffff1673ffffffffffffffffffffffffffffffffffffffff1681526020019081526020016000205490508281101561042f576040517f08c379a0000000000000000000000000000000000000000000000000000000008152600401610426906114ad565b60405180910390fd5b61044c8561043b610866565b85846104479190611636565b61086e565b60019150509392505050565b60006012905090565b600061050361046e610866565b84846002600061047c610866565b73ffffffffffffffffffffffffffffffffffffffff1673ffffffffffffffffffffffffffffffffffffffff16815260200190815260200160002060008873ffffffffffffffffffffffffffffffffffffffff1673ffffffffffffffffffffffffffffffffffffffff168152602001908152602001600020546104fe91906115e0565b61086e565b6001905092915050565b600060019054906101000a900460ff1680610533575060008054906101000a900460ff16155b610572576040517f08c379a00000000000000000000000000000000000000000000000000000000081526004016105699061148d565b60405180910390fd5b60008060019054906101000a900460ff1615905080156105c2576001600060016101000a81548160ff02191690831515021790555060016000806101000a81548160ff0219169083151502179055505b6105cc8383610cbb565b80156105ed5760008060016101000a81548160ff0219169083151502179055505b505050565b6000600160008373ffffffffffffffffffffffffffffffffffffffff1673ffffffffffffffffffffffffffffffffffffffff168152602001908152602001600020549050919050565b60606005805461064a90611701565b80601f016020809104026020016040519081016040528092919081815260200182805461067690611701565b80156106c35780601f10610698576101008083540402835291602001916106c3565b820191906000526020600020905b8154815290600101906020018083116106a657829003601f168201915b5050505050905090565b600080600260006106dc610866565b73ffffffffffffffffffffffffffffffffffffffff1673ffffffffffffffffffffffffffffffffffffffff16815260200190815260200160002060008573ffffffffffffffffffffffffffffffffffffffff1673ffffffffffffffffffffffffffffffffffffffff16815260200190815260200160002054905082811015610799576040517f08c379a00000000000000000000000000000000000000000000000000000000081526004016107909061150d565b60405180910390fd5b6107b66107a4610866565b8585846107b19190611636565b61086e565b600191505092915050565b60006107d56107ce610866565b8484610a39565b6001905092915050565b6000600260008473ffffffffffffffffffffffffffffffffffffffff1673ffffffffffffffffffffffffffffffffffffffff16815260200190815260200160002060008373ffffffffffffffffffffffffffffffffffffffff1673ffffffffffffffffffffffffffffffffffffffff16815260200190815260200160002054905092915050565b600033905090565b600073ffffffffffffffffffffffffffffffffffffffff168373ffffffffffffffffffffffffffffffffffffffff1614156108de576040517f08c379a00000000000000000000000000000000000000000000000000000000081526004016108d5906114ed565b60405180910390fd5b600073ffffffffffffffffffffffffffffffffffffffff168273ffffffffffffffffffffffffffffffffffffffff16141561094e576040517f08c379a00000000000000000000000000000000000000000000000000000000081526004016109459061144d565b60405180910390fd5b80600260008573ffffffffffffffffffffffffffffffffffffffff1673ffffffffffffffffffffffffffffffffffffffff16815260200190815260200160002060008473ffffffffffffffffffffffffffffffffffffffff1673ffffffffffffffffffffffffffffffffffffffff168152602001908152602001600020819055508173ffffffffffffffffffffffffffffffffffffffff168373ffffffffffffffffffffffffffffffffffffffff167f8c5be1e5ebec7d5bd14f71427d1e84f3dd0314c0f7b2291e5b200ac8c7c3b92583604051610a2c919061152d565b60405180910390a3505050565b600073ffffffffffffffffffffffffffffffffffffffff168373ffffffffffffffffffffffffffffffffffffffff161415610aa9576040517f08c379a0000000000000000000000000000000000000000000000000000000008152600401610aa0906114cd565b60405180910390fd5b600073ffffffffffffffffffffffffffffffffffffffff168273ffffffffffffffffffffffffffffffffffffffff161415610b19576040517f08c379a0000000000000000000000000000000000000000000000000000000008152600401610b109061142d565b60405180910390fd5b610b24838383610dc4565b6000600160008573ffffffffffffffffffffffffffffffffffffffff1673ffffffffffffffffffffffffffffffffffffffff16815260200190815260200160002054905081811015610bab576040517f08c379a0000000000000000000000000000000000000000000000000000000008152600401610ba29061146d565b60405180910390fd5b8181610bb79190611636565b600160008673ffffffffffffffffffffffffffffffffffffffff1673ffffffffffffffffffffffffffffffffffffffff1681526020019081526020016000208190555081600160008573ffffffffffffffffffffffffffffffffffffffff1673ffffffffffffffffffffffffffffffffffffffff1681526020019081526020016000206000828254610c4991906115e0565b925050819055508273ffffffffffffffffffffffffffffffffffffffff168473ffffffffffffffffffffffffffffffffffffffff167fddf252ad1be2c89b69c2b068fc378daa952ba7f163c4a11628f55a4df523b3ef84604051610cad919061152d565b60405180910390a350505050565b600060019054906101000a900460ff1680610ce1575060008054906101000a900460ff16155b610d20576040517f08c379a0000000000000000000000000000000000000000000000000000000008152600401610d179061148d565b60405180910390fd5b60008060019054906101000a900460ff161590508015610d70576001600060016101000a81548160ff02191690831515021790555060016000806101000a81548160ff0219169083151502179055505b8260049080519060200190610d86929190610dc9565b508160059080519060200190610d9d929190610dc9565b508015610dbf5760008060016101000a81548160ff0219169083151502179055505b505050565b505050565b828054610dd590611701565b90600052602060002090601f016020900481019282610df75760008555610e3e565b82601f10610e1057805160ff1916838001178555610e3e565b82800160010185558215610e3e579182015b82811115610e3d578251825591602001919060010190610e22565b5b509050610e4b9190610e4f565b5090565b5b80821115610e68576000816000905550600101610e50565b5090565b6000610e7f610e7a84611594565b611563565b905082815260208101848484011115610e9757600080fd5b610ea28482856116bf565b509392505050565b600081359050610eb9816117d1565b92915050565b600082601f830112610ed057600080fd5b8135610ee0848260208601610e6c565b91505092915050565b600081359050610ef8816117e8565b92915050565b600060208284031215610f1057600080fd5b6000610f1e84828501610eaa565b91505092915050565b60008060408385031215610f3a57600080fd5b6000610f4885828601610eaa565b9250506020610f5985828601610eaa565b9150509250929050565b600080600060608486031215610f7857600080fd5b6000610f8686828701610eaa565b9350506020610f9786828701610eaa565b9250506040610fa886828701610ee9565b9150509250925092565b60008060408385031215610fc557600080fd5b6000610fd385828601610eaa565b9250506020610fe485828601610ee9565b9150509250929050565b6000806040838503121561100157600080fd5b600083013567ffffffffffffffff81111561101b57600080fd5b61102785828601610ebf565b925050602083013567ffffffffffffffff81111561104457600080fd5b61105085828601610ebf565b9150509250929050565b6110638161167c565b82525050565b6000611074826115c4565b61107e81856115cf565b935061108e8185602086016116ce565b611097816117c0565b840191505092915050565b60006110af6023836115cf565b91507f45524332303a207472616e7366657220746f20746865207a65726f206164647260008301527f65737300000000000000000000000000000000000000000000000000000000006020830152604082019050919050565b60006111156022836115cf565b91507f45524332303a20617070726f766520746f20746865207a65726f20616464726560008301527f73730000000000000000000000000000000000000000000000000000000000006020830152604082019050919050565b600061117b6026836115cf565b91507f45524332303a207472616e7366657220616d6f756e742065786365656473206260008301527f616c616e636500000000000000000000000000000000000000000000000000006020830152604082019050919050565b60006111e1602e836115cf565b91507f496e697469616c697a61626c653a20636f6e747261637420697320616c72656160008301527f647920696e697469616c697a65640000000000000000000000000000000000006020830152604082019050919050565b60006112476028836115cf565b91507f45524332303a207472616e7366657220616d6f756e742065786365656473206160008301527f6c6c6f77616e63650000000000000000000000000000000000000000000000006020830152604082019050919050565b60006112ad6025836115cf565b91507f45524332303a207472616e736665722066726f6d20746865207a65726f20616460008301527f64726573730000000000000000000000000000000000000000000000000000006020830152604082019050919050565b60006113136024836115cf565b91507f45524332303a20617070726f76652066726f6d20746865207a65726f2061646460008301527f72657373000000000000000000000000000000000000000000000000000000006020830152604082019050919050565b60006113796025836115cf565b91507f45524332303a2064656372656173656420616c6c6f77616e63652062656c6f7760008301527f207a65726f0000000000000000000000000000000000000000000000000000006020830152604082019050919050565b6113db816116a8565b82525050565b6113ea816116b2565b82525050565b6000602082019050611405600083018461105a565b92915050565b600060208201905081810360008301526114258184611069565b905092915050565b60006020820190508181036000830152611446816110a2565b9050919050565b6000602082019050818103600083015261146681611108565b9050919050565b600060208201905081810360008301526114868161116e565b9050919050565b600060208201905081810360008301526114a6816111d4565b9050919050565b600060208201905081810360008301526114c68161123a565b9050919050565b600060208201905081810360008301526114e6816112a0565b9050919050565b6000602082019050818103600083015261150681611306565b9050919050565b600060208201905081810360008301526115268161136c565b9050919050565b600060208201905061154260008301846113d2565b92915050565b600060208201905061155d60008301846113e1565b92915050565b6000604051905081810181811067ffffffffffffffff8211171561158a57611589611791565b5b8060405250919050565b600067ffffffffffffffff8211156115af576115ae611791565b5b601f19601f8301169050602081019050919050565b600081519050919050565b600082825260208201905092915050565b60006115eb826116a8565b91506115f6836116a8565b9250827fffffffffffffffffffffffffffffffffffffffffffffffffffffffffffffffff0382111561162b5761162a611733565b5b828201905092915050565b6000611641826116a8565b915061164c836116a8565b92508282101561165f5761165e611733565b5b828203905092915050565b600061167582611688565b9050919050565b60008115159050919050565b600073ffffffffffffffffffffffffffffffffffffffff82169050919050565b6000819050919050565b600060ff82169050919050565b82818337600083830152505050565b60005b838110156116ec5780820151818401526020810190506116d1565b838111156116fb576000848401525b50505050565b6000600282049050600182168061171957607f821691505b6020821081141561172d5761172c611762565b5b50919050565b7f4e487b7100000000000000000000000000000000000000000000000000000000600052601160045260246000fd5b7f4e487b7100000000000000000000000000000000000000000000000000000000600052602260045260246000fd5b7f4e487b7100000000000000000000000000000000000000000000000000000000600052604160045260246000fd5b6000601f19601f8301169050919050565b6117da8161166a565b81146117e557600080fd5b50565b6117f1816116a8565b81146117fc57600080fd5b5056fea2646970667358221220740cf596c8fe80d8bdc51e0f1c259f412b697557e0593e8976280d85b98b54ea64736f6c63430008000033",
  "linkReferences": {},
  "deployedLinkReferences": {}
}