{
  "_format": "hh-sol-artifact-1",
  "contractName": "CryptoCapsule",
  "sourceName": "contracts/CryptoCapsule.sol",
  "abi": [
    {
      "inputs": [],
      "stateMutability": "nonpayable",
      "type": "constructor"
    },
    {
      "anonymous": false,
      "inputs": [
        {
          "indexed": false,
          "internalType": "uint256",
          "name": "capsuleId",
          "type": "uint256"
        },
        {
          "indexed": false,
          "internalType": "address[]",
          "name": "tokens",
          "type": "address[]"
        },
        {
          "indexed": false,
          "internalType": "uint256[]",
          "name": "values",
          "type": "uint256[]"
        },
        {
          "indexed": false,
          "internalType": "uint256",
          "name": "eth",
          "type": "uint256"
        }
      ],
      "name": "AddedAssets",
      "type": "event"
    },
    {
      "anonymous": false,
      "inputs": [
        {
          "indexed": false,
          "internalType": "uint256",
          "name": "capsuleId",
          "type": "uint256"
        }
      ],
      "name": "CapsuleCreated",
      "type": "event"
    },
    {
      "anonymous": false,
      "inputs": [
        {
          "indexed": false,
          "internalType": "uint256",
          "name": "capsuleId",
          "type": "uint256"
        }
      ],
      "name": "CapsuleOpened",
      "type": "event"
    },
    {
      "anonymous": false,
      "inputs": [
        {
          "indexed": true,
          "internalType": "address",
          "name": "previousOwner",
          "type": "address"
        },
        {
          "indexed": true,
          "internalType": "address",
          "name": "newOwner",
          "type": "address"
        }
      ],
      "name": "OwnershipTransferred",
      "type": "event"
    },
    {
      "anonymous": false,
      "inputs": [
        {
          "indexed": false,
          "internalType": "uint256",
          "name": "capsuleId",
          "type": "uint256"
        },
        {
          "indexed": false,
          "internalType": "address payable",
          "name": "beneficiary",
          "type": "address"
        }
      ],
      "name": "UpdatedBeneficiary",
      "type": "event"
    },
    {
      "inputs": [
        {
          "internalType": "uint256",
          "name": "capsuleId",
          "type": "uint256"
        },
        {
          "internalType": "address[]",
          "name": "_tokens",
          "type": "address[]"
        },
        {
          "internalType": "uint256[]",
          "name": "_values",
          "type": "uint256[]"
        }
      ],
      "name": "addAssets",
      "outputs": [],
      "stateMutability": "payable",
      "type": "function"
    },
    {
      "inputs": [
        {
          "internalType": "address payable",
          "name": "_beneficiary",
          "type": "address"
        },
        {
          "internalType": "uint48",
          "name": "_distributionDate",
          "type": "uint48"
        },
        {
          "internalType": "uint256",
          "name": "_periodSize",
          "type": "uint256"
        },
        {
          "internalType": "uint256",
          "name": "_periodCount",
          "type": "uint256"
        },
        {
          "internalType": "address[]",
          "name": "_tokens",
          "type": "address[]"
        },
        {
          "internalType": "uint256[]",
          "name": "_values",
          "type": "uint256[]"
        },
        {
          "internalType": "bool",
          "name": "addingAssetsAllowed",
          "type": "bool"
        },
        {
          "internalType": "string",
          "name": "_message",
          "type": "string"
        }
      ],
      "name": "createCapsule",
      "outputs": [
        {
          "components": [
            {
              "internalType": "uint256",
              "name": "id",
              "type": "uint256"
            },
            {
              "internalType": "address",
              "name": "grantor",
              "type": "address"
            },
            {
              "internalType": "address payable",
              "name": "beneficiary",
              "type": "address"
            },
            {
              "internalType": "uint48",
              "name": "distributionDate",
              "type": "uint48"
            },
            {
              "internalType": "uint256",
              "name": "periodSize",
              "type": "uint256"
            },
            {
              "internalType": "uint256",
              "name": "periodCount",
              "type": "uint256"
            },
            {
              "internalType": "uint256",
              "name": "claimedPeriods",
              "type": "uint256"
            },
            {
              "internalType": "uint48",
              "name": "createdDate",
              "type": "uint48"
            },
            {
              "internalType": "bool",
              "name": "empty",
              "type": "bool"
            },
            {
              "internalType": "uint256",
              "name": "value",
              "type": "uint256"
            },
            {
              "internalType": "address[]",
              "name": "tokens",
              "type": "address[]"
            },
            {
              "internalType": "uint256[]",
              "name": "amounts",
              "type": "uint256[]"
            },
            {
              "internalType": "bool",
              "name": "addingAssetsAllowed",
              "type": "bool"
            },
            {
              "internalType": "string",
              "name": "message",
              "type": "string"
            }
          ],
          "internalType": "struct CryptoCapsule.Capsule",
          "name": "",
          "type": "tuple"
        }
      ],
      "stateMutability": "payable",
      "type": "function"
    },
    {
      "inputs": [
        {
          "internalType": "uint256",
          "name": "capsuleId",
          "type": "uint256"
        }
      ],
      "name": "getCapsule",
      "outputs": [
        {
          "components": [
            {
              "internalType": "uint256",
              "name": "id",
              "type": "uint256"
            },
            {
              "internalType": "address",
              "name": "grantor",
              "type": "address"
            },
            {
              "internalType": "address payable",
              "name": "beneficiary",
              "type": "address"
            },
            {
              "internalType": "uint48",
              "name": "distributionDate",
              "type": "uint48"
            },
            {
              "internalType": "uint256",
              "name": "periodSize",
              "type": "uint256"
            },
            {
              "internalType": "uint256",
              "name": "periodCount",
              "type": "uint256"
            },
            {
              "internalType": "uint256",
              "name": "claimedPeriods",
              "type": "uint256"
            },
            {
              "internalType": "uint48",
              "name": "createdDate",
              "type": "uint48"
            },
            {
              "internalType": "bool",
              "name": "empty",
              "type": "bool"
            },
            {
              "internalType": "uint256",
              "name": "value",
              "type": "uint256"
            },
            {
              "internalType": "address[]",
              "name": "tokens",
              "type": "address[]"
            },
            {
              "internalType": "uint256[]",
              "name": "amounts",
              "type": "uint256[]"
            },
            {
              "internalType": "bool",
              "name": "addingAssetsAllowed",
              "type": "bool"
            },
            {
              "internalType": "string",
              "name": "message",
              "type": "string"
            }
          ],
          "internalType": "struct CryptoCapsule.Capsule",
          "name": "",
          "type": "tuple"
        }
      ],
      "stateMutability": "view",
      "type": "function"
    },
    {
      "inputs": [],
      "name": "getCapsuleCount",
      "outputs": [
        {
          "internalType": "uint256",
          "name": "",
          "type": "uint256"
        }
      ],
      "stateMutability": "view",
      "type": "function"
    },
    {
      "inputs": [],
      "name": "getCapsules",
      "outputs": [
        {
          "components": [
            {
              "internalType": "uint256",
              "name": "id",
              "type": "uint256"
            },
            {
              "internalType": "address",
              "name": "grantor",
              "type": "address"
            },
            {
              "internalType": "address payable",
              "name": "beneficiary",
              "type": "address"
            },
            {
              "internalType": "uint48",
              "name": "distributionDate",
              "type": "uint48"
            },
            {
              "internalType": "uint256",
              "name": "periodSize",
              "type": "uint256"
            },
            {
              "internalType": "uint256",
              "name": "periodCount",
              "type": "uint256"
            },
            {
              "internalType": "uint256",
              "name": "claimedPeriods",
              "type": "uint256"
            },
            {
              "internalType": "uint48",
              "name": "createdDate",
              "type": "uint48"
            },
            {
              "internalType": "bool",
              "name": "empty",
              "type": "bool"
            },
            {
              "internalType": "uint256",
              "name": "value",
              "type": "uint256"
            },
            {
              "internalType": "address[]",
              "name": "tokens",
              "type": "address[]"
            },
            {
              "internalType": "uint256[]",
              "name": "amounts",
              "type": "uint256[]"
            },
            {
              "internalType": "bool",
              "name": "addingAssetsAllowed",
              "type": "bool"
            },
            {
              "internalType": "string",
              "name": "message",
              "type": "string"
            }
          ],
          "internalType": "struct CryptoCapsule.Capsule[]",
          "name": "",
          "type": "tuple[]"
        }
      ],
      "stateMutability": "view",
      "type": "function"
    },
    {
      "inputs": [
        {
          "internalType": "uint256",
          "name": "capsuleId",
          "type": "uint256"
        }
      ],
      "name": "getMessage",
      "outputs": [
        {
          "internalType": "string",
          "name": "_message",
          "type": "string"
        }
      ],
      "stateMutability": "view",
      "type": "function"
    },
    {
      "inputs": [
        {
          "internalType": "address",
          "name": "beneficiary",
          "type": "address"
        }
      ],
      "name": "getReceivedCapsules",
      "outputs": [
        {
          "components": [
            {
              "internalType": "uint256",
              "name": "id",
              "type": "uint256"
            },
            {
              "internalType": "address",
              "name": "grantor",
              "type": "address"
            },
            {
              "internalType": "address payable",
              "name": "beneficiary",
              "type": "address"
            },
            {
              "internalType": "uint48",
              "name": "distributionDate",
              "type": "uint48"
            },
            {
              "internalType": "uint256",
              "name": "periodSize",
              "type": "uint256"
            },
            {
              "internalType": "uint256",
              "name": "periodCount",
              "type": "uint256"
            },
            {
              "internalType": "uint256",
              "name": "claimedPeriods",
              "type": "uint256"
            },
            {
              "internalType": "uint48",
              "name": "createdDate",
              "type": "uint48"
            },
            {
              "internalType": "bool",
              "name": "empty",
              "type": "bool"
            },
            {
              "internalType": "uint256",
              "name": "value",
              "type": "uint256"
            },
            {
              "internalType": "address[]",
              "name": "tokens",
              "type": "address[]"
            },
            {
              "internalType": "uint256[]",
              "name": "amounts",
              "type": "uint256[]"
            },
            {
              "internalType": "bool",
              "name": "addingAssetsAllowed",
              "type": "bool"
            },
            {
              "internalType": "string",
              "name": "message",
              "type": "string"
            }
          ],
          "internalType": "struct CryptoCapsule.Capsule[]",
          "name": "",
          "type": "tuple[]"
        }
      ],
      "stateMutability": "view",
      "type": "function"
    },
    {
      "inputs": [
        {
          "internalType": "address",
          "name": "grantor",
          "type": "address"
        }
      ],
      "name": "getSentCapsules",
      "outputs": [
        {
          "components": [
            {
              "internalType": "uint256",
              "name": "id",
              "type": "uint256"
            },
            {
              "internalType": "address",
              "name": "grantor",
              "type": "address"
            },
            {
              "internalType": "address payable",
              "name": "beneficiary",
              "type": "address"
            },
            {
              "internalType": "uint48",
              "name": "distributionDate",
              "type": "uint48"
            },
            {
              "internalType": "uint256",
              "name": "periodSize",
              "type": "uint256"
            },
            {
              "internalType": "uint256",
              "name": "periodCount",
              "type": "uint256"
            },
            {
              "internalType": "uint256",
              "name": "claimedPeriods",
              "type": "uint256"
            },
            {
              "internalType": "uint48",
              "name": "createdDate",
              "type": "uint48"
            },
            {
              "internalType": "bool",
              "name": "empty",
              "type": "bool"
            },
            {
              "internalType": "uint256",
              "name": "value",
              "type": "uint256"
            },
            {
              "internalType": "address[]",
              "name": "tokens",
              "type": "address[]"
            },
            {
              "internalType": "uint256[]",
              "name": "amounts",
              "type": "uint256[]"
            },
            {
              "internalType": "bool",
              "name": "addingAssetsAllowed",
              "type": "bool"
            },
            {
              "internalType": "string",
              "name": "message",
              "type": "string"
            }
          ],
          "internalType": "struct CryptoCapsule.Capsule[]",
          "name": "",
          "type": "tuple[]"
        }
      ],
      "stateMutability": "view",
      "type": "function"
    },
    {
      "inputs": [
        {
          "internalType": "uint256",
          "name": "capsuleId",
          "type": "uint256"
        }
      ],
      "name": "openCapsule",
      "outputs": [],
      "stateMutability": "nonpayable",
      "type": "function"
    },
    {
      "inputs": [],
      "name": "owner",
      "outputs": [
        {
          "internalType": "address",
          "name": "",
          "type": "address"
        }
      ],
      "stateMutability": "view",
      "type": "function"
    },
    {
      "inputs": [],
      "name": "renounceOwnership",
      "outputs": [],
      "stateMutability": "nonpayable",
      "type": "function"
    },
    {
      "inputs": [
        {
          "internalType": "address",
          "name": "newOwner",
          "type": "address"
        }
      ],
      "name": "transferOwnership",
      "outputs": [],
      "stateMutability": "nonpayable",
      "type": "function"
    },
    {
      "inputs": [
        {
          "internalType": "uint256",
          "name": "capsuleId",
          "type": "uint256"
        },
        {
          "internalType": "address payable",
          "name": "beneficiary",
          "type": "address"
        }
      ],
      "name": "updateBeneficiary",
      "outputs": [],
      "stateMutability": "nonpayable",
      "type": "function"
    }
  ],
  "bytecode": "0x60806040523480156200001157600080fd5b50600062000024620000c860201b60201c565b9050806000806101000a81548173ffffffffffffffffffffffffffffffffffffffff021916908373ffffffffffffffffffffffffffffffffffffffff1602179055508073ffffffffffffffffffffffffffffffffffffffff16600073ffffffffffffffffffffffffffffffffffffffff167f8be0079c531659141344cd1fd0a4f28419497f9722a3daafe3b4186f6b6457e060405160405180910390a350620000d0565b600033905090565b61598280620000e06000396000f3fe6080604052600436106100c25760003560e01c806386f79edb1161007f578063bfac145111610059578063bfac14511461026d578063dbd2c58014610298578063e24e3ffb146102b4578063f2fde38b146102f1576100c2565b806386f79edb146101c8578063880aad75146102055780638da5cb5b14610242576100c2565b806314bf066d146100c75780632b4f7e7c146100f75780633aac3858146101225780633e8eb5a41461015f5780635c18e55c14610188578063715018a6146101b1575b600080fd5b6100e160048036038101906100dc919061415c565b61031a565b6040516100ee9190615402565b60405180910390f35b34801561010357600080fd5b5061010c610a66565b6040516101199190615424565b60405180910390f35b34801561012e57600080fd5b506101496004803603810190610144919061428d565b610a73565b6040516101569190615402565b60405180910390f35b34801561016b57600080fd5b50610186600480360381019061018191906142b6565b610e01565b005b34801561019457600080fd5b506101af60048036038101906101aa919061428d565b61141f565b005b3480156101bd57600080fd5b506101c6611bfb565b005b3480156101d457600080fd5b506101ef60048036038101906101ea919061428d565b611d35565b6040516101fc9190615140565b60405180910390f35b34801561021157600080fd5b5061022c60048036038101906102279190614133565b611e59565b604051610239919061511e565b60405180910390f35b34801561024e57600080fd5b50610257612319565b60405161026491906150a3565b60405180910390f35b34801561027957600080fd5b50610282612342565b60405161028f919061511e565b60405180910390f35b6102b260048036038101906102ad91906142f2565b612686565b005b3480156102c057600080fd5b506102db60048036038101906102d69190614133565b61317f565b6040516102e8919061511e565b60405180910390f35b3480156102fd57600080fd5b5061031860048036038101906103139190614133565b61363f565b005b610322613dae565b428b65ffffffffffff161161036c576040517f08c379a000000000000000000000000000000000000000000000000000000000815260040161036390615222565b60405180910390fd5b8585905088889050146103b4576040517f08c379a00000000000000000000000000000000000000000000000000000000081526004016103ab90615182565b60405180910390fd5b60018a10156103f8576040517f08c379a00000000000000000000000000000000000000000000000000000000081526004016103ef90615242565b60405180910390fd5b600189101561043c576040517f08c379a000000000000000000000000000000000000000000000000000000000815260040161043390615302565b60405180910390fd5b600a888890501115610483576040517f08c379a000000000000000000000000000000000000000000000000000000000815260040161047a90615202565b60405180910390fd5b60005b888890508110156105e55760008787838181106104cc577f4e487b7100000000000000000000000000000000000000000000000000000000600052603260045260246000fd5b9050602002013511610513576040517f08c379a000000000000000000000000000000000000000000000000000000000815260040161050a906151e2565b60405180910390fd5b600089898381811061054e577f4e487b7100000000000000000000000000000000000000000000000000000000600052603260045260246000fd5b90506020020160208101906105639190614133565b90506105d133308a8a868181106105a3577f4e487b7100000000000000000000000000000000000000000000000000000000600052603260045260246000fd5b905060200201358473ffffffffffffffffffffffffffffffffffffffff166137e8909392919063ffffffff16565b5080806105dd906157f2565b915050610486565b506001604051806101c0016040528060018054905081526020013373ffffffffffffffffffffffffffffffffffffffff1681526020018e73ffffffffffffffffffffffffffffffffffffffff1681526020018d65ffffffffffff1681526020018c81526020018b8152602001600081526020014265ffffffffffff1681526020016000151581526020013481526020018a8a80806020026020016040519081016040528093929190818152602001838360200280828437600081840152601f19601f820116905080830192505050505050508152602001888880806020026020016040519081016040528093929190818152602001838360200280828437600081840152601f19601f820116905080830192505050505050508152602001861515815260200185858080601f016020809104026020016040519081016040528093929190818152602001838380828437600081840152601f19601f8201169050808301925050505050505081525090806001815401808255809150506001900390600052602060002090600c02016000909190919091506000820151816000015560208201518160010160006101000a81548173ffffffffffffffffffffffffffffffffffffffff021916908373ffffffffffffffffffffffffffffffffffffffff16021790555060408201518160020160006101000a81548173ffffffffffffffffffffffffffffffffffffffff021916908373ffffffffffffffffffffffffffffffffffffffff16021790555060608201518160020160146101000a81548165ffffffffffff021916908365ffffffffffff1602179055506080820151816003015560a0820151816004015560c0820151816005015560e08201518160060160006101000a81548165ffffffffffff021916908365ffffffffffff1602179055506101008201518160060160066101000a81548160ff02191690831515021790555061012082015181600701556101408201518160080190805190602001906108d1929190613e5d565b506101608201518160090190805190602001906108ef929190613ee7565b5061018082015181600a0160006101000a81548160ff0219169083151502179055506101a082015181600b01908051906020019061092e929190613f34565b5050506109926001808054905061094591906156de565b600260003373ffffffffffffffffffffffffffffffffffffffff1673ffffffffffffffffffffffffffffffffffffffff16815260200190815260200160002061387190919063ffffffff16565b506109f4600180805490506109a791906156de565b600360008f73ffffffffffffffffffffffffffffffffffffffff1673ffffffffffffffffffffffffffffffffffffffff16815260200190815260200160002061387190919063ffffffff16565b507f7c151e57450b0cad7637a79bc072e86222402425d4414a702244c64c7983ef8e60018080549050610a2791906156de565b604051610a349190615424565b60405180910390a1610a5560018080549050610a5091906156de565b610a73565b90509b9a5050505050505050505050565b6000600180549050905090565b610a7b613dae565b8160018054905011610ac2576040517f08c379a0000000000000000000000000000000000000000000000000000000008152600401610ab9906153a2565b60405180910390fd5b60018281548110610afc577f4e487b7100000000000000000000000000000000000000000000000000000000600052603260045260246000fd5b90600052602060002090600c0201604051806101c0016040529081600082015481526020016001820160009054906101000a900473ffffffffffffffffffffffffffffffffffffffff1673ffffffffffffffffffffffffffffffffffffffff1673ffffffffffffffffffffffffffffffffffffffff1681526020016002820160009054906101000a900473ffffffffffffffffffffffffffffffffffffffff1673ffffffffffffffffffffffffffffffffffffffff1673ffffffffffffffffffffffffffffffffffffffff1681526020016002820160149054906101000a900465ffffffffffff1665ffffffffffff1665ffffffffffff1681526020016003820154815260200160048201548152602001600582015481526020016006820160009054906101000a900465ffffffffffff1665ffffffffffff1665ffffffffffff1681526020016006820160069054906101000a900460ff161515151581526020016007820154815260200160088201805480602002602001604051908101604052809291908181526020018280548015610cec57602002820191906000526020600020905b8160009054906101000a900473ffffffffffffffffffffffffffffffffffffffff1673ffffffffffffffffffffffffffffffffffffffff1681526020019060010190808311610ca2575b5050505050815260200160098201805480602002602001604051908101604052809291908181526020018280548015610d4457602002820191906000526020600020905b815481526020019060010190808311610d30575b50505050508152602001600a820160009054906101000a900460ff16151515158152602001600b82018054610d78906157c0565b80601f0160208091040260200160405190810160405280929190818152602001828054610da4906157c0565b8015610df15780601f10610dc657610100808354040283529160200191610df1565b820191906000526020600020905b815481529060010190602001808311610dd457829003601f168201915b5050505050815250509050919050565b8160018054905011610e48576040517f08c379a0000000000000000000000000000000000000000000000000000000008152600401610e3f906153a2565b60405180910390fd5b600060018381548110610e84577f4e487b7100000000000000000000000000000000000000000000000000000000600052603260045260246000fd5b90600052602060002090600c0201604051806101c0016040529081600082015481526020016001820160009054906101000a900473ffffffffffffffffffffffffffffffffffffffff1673ffffffffffffffffffffffffffffffffffffffff1673ffffffffffffffffffffffffffffffffffffffff1681526020016002820160009054906101000a900473ffffffffffffffffffffffffffffffffffffffff1673ffffffffffffffffffffffffffffffffffffffff1673ffffffffffffffffffffffffffffffffffffffff1681526020016002820160149054906101000a900465ffffffffffff1665ffffffffffff1665ffffffffffff1681526020016003820154815260200160048201548152602001600582015481526020016006820160009054906101000a900465ffffffffffff1665ffffffffffff1665ffffffffffff1681526020016006820160069054906101000a900460ff16151515158152602001600782015481526020016008820180548060200260200160405190810160405280929190818152602001828054801561107457602002820191906000526020600020905b8160009054906101000a900473ffffffffffffffffffffffffffffffffffffffff1673ffffffffffffffffffffffffffffffffffffffff168152602001906001019080831161102a575b50505050508152602001600982018054806020026020016040519081016040528092919081815260200182805480156110cc57602002820191906000526020600020905b8154815260200190600101908083116110b8575b50505050508152602001600a820160009054906101000a900460ff16151515158152602001600b82018054611100906157c0565b80601f016020809104026020016040519081016040528092919081815260200182805461112c906157c0565b80156111795780601f1061114e57610100808354040283529160200191611179565b820191906000526020600020905b81548152906001019060200180831161115c57829003601f168201915b5050505050815250509050806040015173ffffffffffffffffffffffffffffffffffffffff163373ffffffffffffffffffffffffffffffffffffffff16146111f6576040517f08c379a00000000000000000000000000000000000000000000000000000000081526004016111ed906151a2565b60405180910390fd5b8061010001511561123c576040517f08c379a0000000000000000000000000000000000000000000000000000000008152600401611233906153e2565b60405180910390fd5b8173ffffffffffffffffffffffffffffffffffffffff16816040015173ffffffffffffffffffffffffffffffffffffffff1614156112af576040517f08c379a00000000000000000000000000000000000000000000000000000000081526004016112a6906152a2565b60405180910390fd5b6113048360036000846040015173ffffffffffffffffffffffffffffffffffffffff1673ffffffffffffffffffffffffffffffffffffffff16815260200190815260200160002061388b90919063ffffffff16565b508160018481548110611340577f4e487b7100000000000000000000000000000000000000000000000000000000600052603260045260246000fd5b90600052602060002090600c020160020160006101000a81548173ffffffffffffffffffffffffffffffffffffffff021916908373ffffffffffffffffffffffffffffffffffffffff1602179055506113e083600360008573ffffffffffffffffffffffffffffffffffffffff1673ffffffffffffffffffffffffffffffffffffffff16815260200190815260200160002061387190919063ffffffff16565b507fa3727ff12d0c2c6bb6133ecce981dd0a134504458ff93c9e3d742f4bd0a9009b838360405161141292919061543f565b60405180910390a1505050565b8060018054905011611466576040517f08c379a000000000000000000000000000000000000000000000000000000000815260040161145d906153a2565b60405180910390fd5b6000600182815481106114a2577f4e487b7100000000000000000000000000000000000000000000000000000000600052603260045260246000fd5b90600052602060002090600c0201604051806101c0016040529081600082015481526020016001820160009054906101000a900473ffffffffffffffffffffffffffffffffffffffff1673ffffffffffffffffffffffffffffffffffffffff1673ffffffffffffffffffffffffffffffffffffffff1681526020016002820160009054906101000a900473ffffffffffffffffffffffffffffffffffffffff1673ffffffffffffffffffffffffffffffffffffffff1673ffffffffffffffffffffffffffffffffffffffff1681526020016002820160149054906101000a900465ffffffffffff1665ffffffffffff1665ffffffffffff1681526020016003820154815260200160048201548152602001600582015481526020016006820160009054906101000a900465ffffffffffff1665ffffffffffff1665ffffffffffff1681526020016006820160069054906101000a900460ff16151515158152602001600782015481526020016008820180548060200260200160405190810160405280929190818152602001828054801561169257602002820191906000526020600020905b8160009054906101000a900473ffffffffffffffffffffffffffffffffffffffff1673ffffffffffffffffffffffffffffffffffffffff1681526020019060010190808311611648575b50505050508152602001600982018054806020026020016040519081016040528092919081815260200182805480156116ea57602002820191906000526020600020905b8154815260200190600101908083116116d6575b50505050508152602001600a820160009054906101000a900460ff16151515158152602001600b8201805461171e906157c0565b80601f016020809104026020016040519081016040528092919081815260200182805461174a906157c0565b80156117975780601f1061176c57610100808354040283529160200191611797565b820191906000526020600020905b81548152906001019060200180831161177a57829003601f168201915b5050505050815250509050806040015173ffffffffffffffffffffffffffffffffffffffff163373ffffffffffffffffffffffffffffffffffffffff1614611814576040517f08c379a000000000000000000000000000000000000000000000000000000000815260040161180b906151a2565b60405180910390fd5b8061010001511561185a576040517f08c379a0000000000000000000000000000000000000000000000000000000008152600401611851906153e2565b60405180910390fd5b806060015165ffffffffffff164210156118a9576040517f08c379a00000000000000000000000000000000000000000000000000000000081526004016118a090615262565b60405180910390fd5b600081608001518260c001516118bf9190615684565b826060015165ffffffffffff166118d691906155fd565b90508042101561191b576040517f08c379a000000000000000000000000000000000000000000000000000000000815260040161191290615362565b60405180910390fd5b600060018360800151834261193091906156de565b61193a9190615653565b61194491906155fd565b905060008360c001518460a0015161195c91906156de565b905080821161196b578161196d565b805b9150818460c0015161197f91906155fd565b600186815481106119b9577f4e487b7100000000000000000000000000000000000000000000000000000000600052603260045260246000fd5b90600052602060002090600c0201600501819055508360a00151828560c001516119e391906155fd565b1460018681548110611a1e577f4e487b7100000000000000000000000000000000000000000000000000000000600052603260045260246000fd5b90600052602060002090600c020160060160066101000a81548160ff02191690831515021790555060008461012001511115611abf57836040015173ffffffffffffffffffffffffffffffffffffffff166108fc8560a0015184876101200151611a889190615684565b611a929190615653565b9081150290604051600060405180830381858888f19350505050158015611abd573d6000803e3d6000fd5b505b60005b84610140015151811015611bbc5760008561014001518281518110611b10577f4e487b7100000000000000000000000000000000000000000000000000000000600052603260045260246000fd5b60200260200101519050611ba886604001518760a00151868961016001518681518110611b66577f4e487b7100000000000000000000000000000000000000000000000000000000600052603260045260246000fd5b6020026020010151611b789190615684565b611b829190615653565b8373ffffffffffffffffffffffffffffffffffffffff166138a59092919063ffffffff16565b508080611bb4906157f2565b915050611ac2565b507f8c3e527bd7964ec4e70c29f3e35cd23f3e16c86783b6aa8cbb5cafad0036b91485604051611bec9190615424565b60405180910390a15050505050565b611c0361392b565b73ffffffffffffffffffffffffffffffffffffffff16611c21612319565b73ffffffffffffffffffffffffffffffffffffffff1614611c77576040517f08c379a0000000000000000000000000000000000000000000000000000000008152600401611c6e90615322565b60405180910390fd5b600073ffffffffffffffffffffffffffffffffffffffff1660008054906101000a900473ffffffffffffffffffffffffffffffffffffffff1673ffffffffffffffffffffffffffffffffffffffff167f8be0079c531659141344cd1fd0a4f28419497f9722a3daafe3b4186f6b6457e060405160405180910390a360008060006101000a81548173ffffffffffffffffffffffffffffffffffffffff021916908373ffffffffffffffffffffffffffffffffffffffff160217905550565b60608160018054905011611d7e576040517f08c379a0000000000000000000000000000000000000000000000000000000008152600401611d75906153a2565b60405180910390fd5b60018281548110611db8577f4e487b7100000000000000000000000000000000000000000000000000000000600052603260045260246000fd5b90600052602060002090600c0201600b018054611dd4906157c0565b80601f0160208091040260200160405190810160405280929190818152602001828054611e00906157c0565b8015611e4d5780601f10611e2257610100808354040283529160200191611e4d565b820191906000526020600020905b815481529060010190602001808311611e3057829003601f168201915b50505050509050919050565b60606000611ea4600360008573ffffffffffffffffffffffffffffffffffffffff1673ffffffffffffffffffffffffffffffffffffffff168152602001908152602001600020613933565b905060008167ffffffffffffffff811115611ee8577f4e487b7100000000000000000000000000000000000000000000000000000000600052604160045260246000fd5b604051908082528060200260200182016040528015611f2157816020015b611f0e613dae565b815260200190600190039081611f065790505b50905060005b8281101561230e576001611f8282600360008973ffffffffffffffffffffffffffffffffffffffff1673ffffffffffffffffffffffffffffffffffffffff16815260200190815260200160002061394890919063ffffffff16565b81548110611fb9577f4e487b7100000000000000000000000000000000000000000000000000000000600052603260045260246000fd5b90600052602060002090600c0201604051806101c0016040529081600082015481526020016001820160009054906101000a900473ffffffffffffffffffffffffffffffffffffffff1673ffffffffffffffffffffffffffffffffffffffff1673ffffffffffffffffffffffffffffffffffffffff1681526020016002820160009054906101000a900473ffffffffffffffffffffffffffffffffffffffff1673ffffffffffffffffffffffffffffffffffffffff1673ffffffffffffffffffffffffffffffffffffffff1681526020016002820160149054906101000a900465ffffffffffff1665ffffffffffff1665ffffffffffff1681526020016003820154815260200160048201548152602001600582015481526020016006820160009054906101000a900465ffffffffffff1665ffffffffffff1665ffffffffffff1681526020016006820160069054906101000a900460ff1615151515815260200160078201548152602001600882018054806020026020016040519081016040528092919081815260200182805480156121a957602002820191906000526020600020905b8160009054906101000a900473ffffffffffffffffffffffffffffffffffffffff1673ffffffffffffffffffffffffffffffffffffffff168152602001906001019080831161215f575b505050505081526020016009820180548060200260200160405190810160405280929190818152602001828054801561220157602002820191906000526020600020905b8154815260200190600101908083116121ed575b50505050508152602001600a820160009054906101000a900460ff16151515158152602001600b82018054612235906157c0565b80601f0160208091040260200160405190810160405280929190818152602001828054612261906157c0565b80156122ae5780601f10612283576101008083540402835291602001916122ae565b820191906000526020600020905b81548152906001019060200180831161229157829003601f168201915b5050505050815250508282815181106122f0577f4e487b7100000000000000000000000000000000000000000000000000000000600052603260045260246000fd5b60200260200101819052508080612306906157f2565b915050611f27565b508092505050919050565b60008060009054906101000a900473ffffffffffffffffffffffffffffffffffffffff16905090565b60606001805480602002602001604051908101604052809291908181526020016000905b8282101561267d57838290600052602060002090600c0201604051806101c0016040529081600082015481526020016001820160009054906101000a900473ffffffffffffffffffffffffffffffffffffffff1673ffffffffffffffffffffffffffffffffffffffff1673ffffffffffffffffffffffffffffffffffffffff1681526020016002820160009054906101000a900473ffffffffffffffffffffffffffffffffffffffff1673ffffffffffffffffffffffffffffffffffffffff1673ffffffffffffffffffffffffffffffffffffffff1681526020016002820160149054906101000a900465ffffffffffff1665ffffffffffff1665ffffffffffff1681526020016003820154815260200160048201548152602001600582015481526020016006820160009054906101000a900465ffffffffffff1665ffffffffffff1665ffffffffffff1681526020016006820160069054906101000a900460ff16151515158152602001600782015481526020016008820180548060200260200160405190810160405280929190818152602001828054801561256057602002820191906000526020600020905b8160009054906101000a900473ffffffffffffffffffffffffffffffffffffffff1673ffffffffffffffffffffffffffffffffffffffff1681526020019060010190808311612516575b50505050508152602001600982018054806020026020016040519081016040528092919081815260200182805480156125b857602002820191906000526020600020905b8154815260200190600101908083116125a4575b50505050508152602001600a820160009054906101000a900460ff16151515158152602001600b820180546125ec906157c0565b80601f0160208091040260200160405190810160405280929190818152602001828054612618906157c0565b80156126655780601f1061263a57610100808354040283529160200191612665565b820191906000526020600020905b81548152906001019060200180831161264857829003601f168201915b50505050508152505081526020019060010190612366565b50505050905090565b84600180549050116126cd576040517f08c379a00000000000000000000000000000000000000000000000000000000081526004016126c4906153a2565b60405180910390fd5b818190508484905014612715576040517f08c379a000000000000000000000000000000000000000000000000000000000815260040161270c90615182565b60405180910390fd5b600060018681548110612751577f4e487b7100000000000000000000000000000000000000000000000000000000600052603260045260246000fd5b90600052602060002090600c0201604051806101c0016040529081600082015481526020016001820160009054906101000a900473ffffffffffffffffffffffffffffffffffffffff1673ffffffffffffffffffffffffffffffffffffffff1673ffffffffffffffffffffffffffffffffffffffff1681526020016002820160009054906101000a900473ffffffffffffffffffffffffffffffffffffffff1673ffffffffffffffffffffffffffffffffffffffff1673ffffffffffffffffffffffffffffffffffffffff1681526020016002820160149054906101000a900465ffffffffffff1665ffffffffffff1665ffffffffffff1681526020016003820154815260200160048201548152602001600582015481526020016006820160009054906101000a900465ffffffffffff1665ffffffffffff1665ffffffffffff1681526020016006820160069054906101000a900460ff16151515158152602001600782015481526020016008820180548060200260200160405190810160405280929190818152602001828054801561294157602002820191906000526020600020905b8160009054906101000a900473ffffffffffffffffffffffffffffffffffffffff1673ffffffffffffffffffffffffffffffffffffffff16815260200190600101908083116128f7575b505050505081526020016009820180548060200260200160405190810160405280929190818152602001828054801561299957602002820191906000526020600020905b815481526020019060010190808311612985575b50505050508152602001600a820160009054906101000a900460ff16151515158152602001600b820180546129cd906157c0565b80601f01602080910402602001604051908101604052809291908181526020018280546129f9906157c0565b8015612a465780601f10612a1b57610100808354040283529160200191612a46565b820191906000526020600020905b815481529060010190602001808311612a2957829003601f168201915b5050505050815250509050806101800151612a96576040517f08c379a0000000000000000000000000000000000000000000000000000000008152600401612a8d906152e2565b60405180910390fd5b806020015173ffffffffffffffffffffffffffffffffffffffff163373ffffffffffffffffffffffffffffffffffffffff1614612b08576040517f08c379a0000000000000000000000000000000000000000000000000000000008152600401612aff906152c2565b60405180910390fd5b806060015165ffffffffffff164210612b56576040517f08c379a0000000000000000000000000000000000000000000000000000000008152600401612b4d90615342565b60405180910390fd5b60005b85859050811015613041576000848483818110612b9f577f4e487b7100000000000000000000000000000000000000000000000000000000600052603260045260246000fd5b9050602002013511612be6576040517f08c379a0000000000000000000000000000000000000000000000000000000008152600401612bdd906151e2565b60405180910390fd5b6000868683818110612c21577f4e487b7100000000000000000000000000000000000000000000000000000000600052603260045260246000fd5b9050602002016020810190612c369190614133565b9050612ca43330878786818110612c76577f4e487b7100000000000000000000000000000000000000000000000000000000600052603260045260246000fd5b905060200201358473ffffffffffffffffffffffffffffffffffffffff166137e8909392919063ffffffff16565b6000805b84610140015151811015612e7b57888885818110612cef577f4e487b7100000000000000000000000000000000000000000000000000000000600052603260045260246000fd5b9050602002016020810190612d049190614133565b73ffffffffffffffffffffffffffffffffffffffff168561014001518281518110612d58577f4e487b7100000000000000000000000000000000000000000000000000000000600052603260045260246000fd5b602002602001015173ffffffffffffffffffffffffffffffffffffffff161415612e6857868685818110612db5577f4e487b7100000000000000000000000000000000000000000000000000000000600052603260045260246000fd5b9050602002013560018b81548110612df6577f4e487b7100000000000000000000000000000000000000000000000000000000600052603260045260246000fd5b90600052602060002090600c02016009018281548110612e3f577f4e487b7100000000000000000000000000000000000000000000000000000000600052603260045260246000fd5b906000526020600020016000828254612e5891906155fd565b9250508190555060019150612e7b565b8080612e73906157f2565b915050612ca8565b508061302c5760018981548110612ebb577f4e487b7100000000000000000000000000000000000000000000000000000000600052603260045260246000fd5b90600052602060002090600c0201600801888885818110612f05577f4e487b7100000000000000000000000000000000000000000000000000000000600052603260045260246000fd5b9050602002016020810190612f1a9190614133565b9080600181540180825580915050600190039060005260206000200160009091909190916101000a81548173ffffffffffffffffffffffffffffffffffffffff021916908373ffffffffffffffffffffffffffffffffffffffff16021790555060018981548110612fb4577f4e487b7100000000000000000000000000000000000000000000000000000000600052603260045260246000fd5b90600052602060002090600c0201600901868685818110612ffe577f4e487b7100000000000000000000000000000000000000000000000000000000600052603260045260246000fd5b9050602002013590806001815401808255809150506001900390600052602060002001600090919091909150555b50508080613039906157f2565b915050612b59565b50600a6001878154811061307e577f4e487b7100000000000000000000000000000000000000000000000000000000600052603260045260246000fd5b90600052602060002090600c02016008018054905011156130d4576040517f08c379a00000000000000000000000000000000000000000000000000000000081526004016130cb90615202565b60405180910390fd5b346001878154811061310f577f4e487b7100000000000000000000000000000000000000000000000000000000600052603260045260246000fd5b90600052602060002090600c0201600701600082825461312f91906155fd565b925050819055507ff4953fb9cbe321567d24632ea5b2b4bd8542e6f8e2e2cb2d081663aab1ba4c1d86868686863460405161316f96959493929190615468565b60405180910390a1505050505050565b606060006131ca600260008573ffffffffffffffffffffffffffffffffffffffff1673ffffffffffffffffffffffffffffffffffffffff168152602001908152602001600020613933565b905060008167ffffffffffffffff81111561320e577f4e487b7100000000000000000000000000000000000000000000000000000000600052604160045260246000fd5b60405190808252806020026020018201604052801561324757816020015b613234613dae565b81526020019060019003908161322c5790505b50905060005b828110156136345760016132a882600260008973ffffffffffffffffffffffffffffffffffffffff1673ffffffffffffffffffffffffffffffffffffffff16815260200190815260200160002061394890919063ffffffff16565b815481106132df577f4e487b7100000000000000000000000000000000000000000000000000000000600052603260045260246000fd5b90600052602060002090600c0201604051806101c0016040529081600082015481526020016001820160009054906101000a900473ffffffffffffffffffffffffffffffffffffffff1673ffffffffffffffffffffffffffffffffffffffff1673ffffffffffffffffffffffffffffffffffffffff1681526020016002820160009054906101000a900473ffffffffffffffffffffffffffffffffffffffff1673ffffffffffffffffffffffffffffffffffffffff1673ffffffffffffffffffffffffffffffffffffffff1681526020016002820160149054906101000a900465ffffffffffff1665ffffffffffff1665ffffffffffff1681526020016003820154815260200160048201548152602001600582015481526020016006820160009054906101000a900465ffffffffffff1665ffffffffffff1665ffffffffffff1681526020016006820160069054906101000a900460ff1615151515815260200160078201548152602001600882018054806020026020016040519081016040528092919081815260200182805480156134cf57602002820191906000526020600020905b8160009054906101000a900473ffffffffffffffffffffffffffffffffffffffff1673ffffffffffffffffffffffffffffffffffffffff1681526020019060010190808311613485575b505050505081526020016009820180548060200260200160405190810160405280929190818152602001828054801561352757602002820191906000526020600020905b815481526020019060010190808311613513575b50505050508152602001600a820160009054906101000a900460ff16151515158152602001600b8201805461355b906157c0565b80601f0160208091040260200160405190810160405280929190818152602001828054613587906157c0565b80156135d45780601f106135a9576101008083540402835291602001916135d4565b820191906000526020600020905b8154815290600101906020018083116135b757829003601f168201915b505050505081525050828281518110613616577f4e487b7100000000000000000000000000000000000000000000000000000000600052603260045260246000fd5b6020026020010181905250808061362c906157f2565b91505061324d565b508092505050919050565b61364761392b565b73ffffffffffffffffffffffffffffffffffffffff16613665612319565b73ffffffffffffffffffffffffffffffffffffffff16146136bb576040517f08c379a00000000000000000000000000000000000000000000000000000000081526004016136b290615322565b60405180910390fd5b600073ffffffffffffffffffffffffffffffffffffffff168173ffffffffffffffffffffffffffffffffffffffff16141561372b576040517f08c379a0000000000000000000000000000000000000000000000000000000008152600401613722906151c2565b60405180910390fd5b8073ffffffffffffffffffffffffffffffffffffffff1660008054906101000a900473ffffffffffffffffffffffffffffffffffffffff1673ffffffffffffffffffffffffffffffffffffffff167f8be0079c531659141344cd1fd0a4f28419497f9722a3daafe3b4186f6b6457e060405160405180910390a3806000806101000a81548173ffffffffffffffffffffffffffffffffffffffff021916908373ffffffffffffffffffffffffffffffffffffffff16021790555050565b61386b846323b872dd60e01b858585604051602401613809939291906150be565b604051602081830303815290604052907bffffffffffffffffffffffffffffffffffffffffffffffffffffffff19166020820180517bffffffffffffffffffffffffffffffffffffffffffffffffffffffff8381831617835250505050613962565b50505050565b6000613883836000018360001b613ad3565b905092915050565b600061389d836000018360001b613b43565b905092915050565b6139268363a9059cbb60e01b84846040516024016138c49291906150f5565b604051602081830303815290604052907bffffffffffffffffffffffffffffffffffffffffffffffffffffffff19166020820180517bffffffffffffffffffffffffffffffffffffffffffffffffffffffff8381831617835250505050613962565b505050565b600033905090565b600061394182600001613ccd565b9050919050565b60006139578360000183613cde565b60001c905092915050565b6139818273ffffffffffffffffffffffffffffffffffffffff16613d78565b6139c0576040517f08c379a00000000000000000000000000000000000000000000000000000000081526004016139b7906153c2565b60405180910390fd5b6000808373ffffffffffffffffffffffffffffffffffffffff16836040516139e8919061508c565b6000604051808303816000865af19150503d8060008114613a25576040519150601f19603f3d011682016040523d82523d6000602084013e613a2a565b606091505b509150915081613a6f576040517f08c379a0000000000000000000000000000000000000000000000000000000008152600401613a6690615282565b60405180910390fd5b600081511115613acd5780806020019051810190613a8d9190614264565b613acc576040517f08c379a0000000000000000000000000000000000000000000000000000000008152600401613ac390615382565b60405180910390fd5b5b50505050565b6000613adf8383613d8b565b613b38578260000182908060018154018082558091505060019003906000526020600020016000909190919091505582600001805490508360010160008481526020019081526020016000208190555060019050613b3d565b600090505b92915050565b60008083600101600084815260200190815260200160002054905060008114613cc1576000600182613b7591906156de565b9050600060018660000180549050613b8d91906156de565b90506000866000018281548110613bcd577f4e487b7100000000000000000000000000000000000000000000000000000000600052603260045260246000fd5b9060005260206000200154905080876000018481548110613c17577f4e487b7100000000000000000000000000000000000000000000000000000000600052603260045260246000fd5b9060005260206000200181905550600183613c3291906155fd565b8760010160008381526020019081526020016000208190555086600001805480613c85577f4e487b7100000000000000000000000000000000000000000000000000000000600052603160045260246000fd5b60019003818190600052602060002001600090559055866001016000878152602001908152602001600020600090556001945050505050613cc7565b60009150505b92915050565b600081600001805490509050919050565b600081836000018054905011613d29576040517f08c379a0000000000000000000000000000000000000000000000000000000008152600401613d2090615162565b60405180910390fd5b826000018281548110613d65577f4e487b7100000000000000000000000000000000000000000000000000000000600052603260045260246000fd5b9060005260206000200154905092915050565b600080823b905060008111915050919050565b600080836001016000848152602001908152602001600020541415905092915050565b604051806101c0016040528060008152602001600073ffffffffffffffffffffffffffffffffffffffff168152602001600073ffffffffffffffffffffffffffffffffffffffff168152602001600065ffffffffffff168152602001600081526020016000815260200160008152602001600065ffffffffffff168152602001600015158152602001600081526020016060815260200160608152602001600015158152602001606081525090565b828054828255906000526020600020908101928215613ed6579160200282015b82811115613ed55782518260006101000a81548173ffffffffffffffffffffffffffffffffffffffff021916908373ffffffffffffffffffffffffffffffffffffffff16021790555091602001919060010190613e7d565b5b509050613ee39190613fba565b5090565b828054828255906000526020600020908101928215613f23579160200282015b82811115613f22578251825591602001919060010190613f07565b5b509050613f309190613fba565b5090565b828054613f40906157c0565b90600052602060002090601f016020900481019282613f625760008555613fa9565b82601f10613f7b57805160ff1916838001178555613fa9565b82800160010185558215613fa9579182015b82811115613fa8578251825591602001919060010190613f8d565b5b509050613fb69190613fba565b5090565b5b80821115613fd3576000816000905550600101613fbb565b5090565b600081359050613fe6816158d9565b92915050565b600081359050613ffb816158f0565b92915050565b60008083601f84011261401357600080fd5b8235905067ffffffffffffffff81111561402c57600080fd5b60208301915083602082028301111561404457600080fd5b9250929050565b60008083601f84011261405d57600080fd5b8235905067ffffffffffffffff81111561407657600080fd5b60208301915083602082028301111561408e57600080fd5b9250929050565b6000813590506140a481615907565b92915050565b6000815190506140b981615907565b92915050565b60008083601f8401126140d157600080fd5b8235905067ffffffffffffffff8111156140ea57600080fd5b60208301915083600182028301111561410257600080fd5b9250929050565b6000813590506141188161591e565b92915050565b60008135905061412d81615935565b92915050565b60006020828403121561414557600080fd5b600061415384828501613fd7565b91505092915050565b60008060008060008060008060008060006101008c8e03121561417e57600080fd5b600061418c8e828f01613fec565b9b5050602061419d8e828f0161411e565b9a505060406141ae8e828f01614109565b99505060606141bf8e828f01614109565b98505060808c013567ffffffffffffffff8111156141dc57600080fd5b6141e88e828f01614001565b975097505060a08c013567ffffffffffffffff81111561420757600080fd5b6142138e828f0161404b565b955095505060c06142268e828f01614095565b93505060e08c013567ffffffffffffffff81111561424357600080fd5b61424f8e828f016140bf565b92509250509295989b509295989b9093969950565b60006020828403121561427657600080fd5b6000614284848285016140aa565b91505092915050565b60006020828403121561429f57600080fd5b60006142ad84828501614109565b91505092915050565b600080604083850312156142c957600080fd5b60006142d785828601614109565b92505060206142e885828601613fec565b9150509250929050565b60008060008060006060868803121561430a57600080fd5b600061431888828901614109565b955050602086013567ffffffffffffffff81111561433557600080fd5b61434188828901614001565b9450945050604086013567ffffffffffffffff81111561436057600080fd5b61436c8882890161404b565b92509250509295509295909350565b600061438783836143dd565b60208301905092915050565b600061439f8383614de7565b905092915050565b60006143b3838361505f565b60208301905092915050565b6143c881615724565b82525050565b6143d781615724565b82525050565b6143e681615712565b82525050565b6143f581615712565b82525050565b60006144078385615575565b9350614412826154bf565b8060005b8581101561444b5761442882846155e6565b614432888261437b565b975061443d83615530565b925050600181019050614416565b5085925050509392505050565b6000614463826154f9565b61446d8185615564565b9350614478836154c9565b8060005b838110156144a9578151614490888261437b565b975061449b8361553d565b92505060018101905061447c565b5085935050505092915050565b60006144c182615504565b6144cb8185615586565b9350836020820285016144dd856154d9565b8060005b8581101561451957848403895281516144fa8582614393565b94506145058361554a565b925060208a019950506001810190506144e1565b50829750879550505050505092915050565b600061453783856155a8565b93507f07ffffffffffffffffffffffffffffffffffffffffffffffffffffffffffffff83111561456657600080fd5b60208302925061457783858461577e565b82840190509392505050565b600061458e8261550f565b6145988185615597565b93506145a3836154e9565b8060005b838110156145d45781516145bb88826143a7565b97506145c683615557565b9250506001810190506145a7565b5085935050505092915050565b6145ea81615736565b82525050565b60006145fb8261551a565b61460581856155b9565b935061461581856020860161578d565b80840191505092915050565b600061462c82615525565b61463681856155c4565b935061464681856020860161578d565b61464f816158c8565b840191505092915050565b600061466582615525565b61466f81856155d5565b935061467f81856020860161578d565b614688816158c8565b840191505092915050565b60006146a06022836155d5565b91507f456e756d657261626c655365743a20696e646578206f7574206f6620626f756e60008301527f64730000000000000000000000000000000000000000000000000000000000006020830152604082019050919050565b60006147066025836155d5565b91507f546f6b656e7320616e642056616c756573206d7573742062652073616d65206c60008301527f656e6774680000000000000000000000000000000000000000000000000000006020830152604082019050919050565b600061476c602b836155d5565b91507f596f7520617265206e6f74207468652062656e6566696369617279206f66207460008301527f6869732043617073756c650000000000000000000000000000000000000000006020830152604082019050919050565b60006147d26026836155d5565b91507f4f776e61626c653a206e6577206f776e657220697320746865207a65726f206160008301527f64647265737300000000000000000000000000000000000000000000000000006020830152604082019050919050565b60006148386022836155d5565b91507f546f6b656e2076616c7565206d7573742062652067726561746572207468616e60008301527f20300000000000000000000000000000000000000000000000000000000000006020830152604082019050919050565b600061489e6027836155d5565b91507f41737365747320657863656564206d6178696d756d206f66203130207065722060008301527f63617073756c65000000000000000000000000000000000000000000000000006020830152604082019050919050565b60006149046023836155d5565b91507f446973747269627574696f6e2044617465206d75737420626520696e2066757460008301527f75726500000000000000000000000000000000000000000000000000000000006020830152604082019050919050565b600061496a602b836155d5565b91507f506572696f642053697a65206d7573742067726561746572207468616e206f7260008301527f20657175616c20746f20310000000000000000000000000000000000000000006020830152604082019050919050565b60006149d0601b836155d5565b91507f43617073756c6520686173206e6f74206d6174757265642079657400000000006000830152602082019050919050565b6000614a106020836155d5565b91507f5361666545524332303a206c6f772d6c6576656c2063616c6c206661696c65646000830152602082019050919050565b6000614a506026836155d5565b91507f42656e6566696369617279206973206e6f7420646966666572656e7420746f2060008301527f63757272657400000000000000000000000000000000000000000000000000006020830152604082019050919050565b6000614ab66027836155d5565b91507f596f7520617265206e6f7420746865206772616e746f72206f6620746869732060008301527f43617073756c65000000000000000000000000000000000000000000000000006020830152604082019050919050565b6000614b1c602a836155d5565b91507f416464696e6720617373657473206e6f7420616c6c6f77656420666f7220746860008301527f69732043617073756c65000000000000000000000000000000000000000000006020830152604082019050919050565b6000614b82602c836155d5565b91507f506572696f6420436f756e74206d7573742067726561746572207468616e206f60008301527f7220657175616c20746f203100000000000000000000000000000000000000006020830152604082019050919050565b6000614be86020836155d5565b91507f4f776e61626c653a2063616c6c6572206973206e6f7420746865206f776e65726000830152602082019050919050565b6000614c286021836155d5565b91507f43617073756c65206973207061737420646973747269627574696f6e2064617460008301527f65000000000000000000000000000000000000000000000000000000000000006020830152604082019050919050565b6000614c8e601d836155d5565b91507f4e6f20706572696f647320617661696c61626c6520746f20636c61696d0000006000830152602082019050919050565b6000614cce602a836155d5565b91507f5361666545524332303a204552433230206f7065726174696f6e20646964206e60008301527f6f742073756363656564000000000000000000000000000000000000000000006020830152604082019050919050565b6000614d346016836155d5565b91507f43617073756c6520646f6573206e6f74206578697374000000000000000000006000830152602082019050919050565b6000614d74601f836155d5565b91507f5361666545524332303a2063616c6c20746f206e6f6e2d636f6e7472616374006000830152602082019050919050565b6000614db46010836155d5565b91507f43617073756c6520697320656d707479000000000000000000000000000000006000830152602082019050919050565b60006101c083016000830151614e00600086018261505f565b506020830151614e1360208601826143dd565b506040830151614e2660408601826143bf565b506060830151614e39606086018261507d565b506080830151614e4c608086018261505f565b5060a0830151614e5f60a086018261505f565b5060c0830151614e7260c086018261505f565b5060e0830151614e8560e086018261507d565b50610100830151614e9a6101008601826145e1565b50610120830151614eaf61012086018261505f565b50610140830151848203610140860152614ec98282614458565b915050610160830151848203610160860152614ee58282614583565b915050610180830151614efc6101808601826145e1565b506101a08301518482036101a0860152614f168282614621565b9150508091505092915050565b60006101c083016000830151614f3c600086018261505f565b506020830151614f4f60208601826143dd565b506040830151614f6260408601826143bf565b506060830151614f75606086018261507d565b506080830151614f88608086018261505f565b5060a0830151614f9b60a086018261505f565b5060c0830151614fae60c086018261505f565b5060e0830151614fc160e086018261507d565b50610100830151614fd66101008601826145e1565b50610120830151614feb61012086018261505f565b506101408301518482036101408601526150058282614458565b9150506101608301518482036101608601526150218282614583565b9150506101808301516150386101808601826145e1565b506101a08301518482036101a08601526150528282614621565b9150508091505092915050565b61506881615762565b82525050565b61507781615762565b82525050565b6150868161576c565b82525050565b600061509882846145f0565b915081905092915050565b60006020820190506150b860008301846143ec565b92915050565b60006060820190506150d360008301866143ec565b6150e060208301856143ec565b6150ed604083018461506e565b949350505050565b600060408201905061510a60008301856143ec565b615117602083018461506e565b9392505050565b6000602082019050818103600083015261513881846144b6565b905092915050565b6000602082019050818103600083015261515a818461465a565b905092915050565b6000602082019050818103600083015261517b81614693565b9050919050565b6000602082019050818103600083015261519b816146f9565b9050919050565b600060208201905081810360008301526151bb8161475f565b9050919050565b600060208201905081810360008301526151db816147c5565b9050919050565b600060208201905081810360008301526151fb8161482b565b9050919050565b6000602082019050818103600083015261521b81614891565b9050919050565b6000602082019050818103600083015261523b816148f7565b9050919050565b6000602082019050818103600083015261525b8161495d565b9050919050565b6000602082019050818103600083015261527b816149c3565b9050919050565b6000602082019050818103600083015261529b81614a03565b9050919050565b600060208201905081810360008301526152bb81614a43565b9050919050565b600060208201905081810360008301526152db81614aa9565b9050919050565b600060208201905081810360008301526152fb81614b0f565b9050919050565b6000602082019050818103600083015261531b81614b75565b9050919050565b6000602082019050818103600083015261533b81614bdb565b9050919050565b6000602082019050818103600083015261535b81614c1b565b9050919050565b6000602082019050818103600083015261537b81614c81565b9050919050565b6000602082019050818103600083015261539b81614cc1565b9050919050565b600060208201905081810360008301526153bb81614d27565b9050919050565b600060208201905081810360008301526153db81614d67565b9050919050565b600060208201905081810360008301526153fb81614da7565b9050919050565b6000602082019050818103600083015261541c8184614f23565b905092915050565b6000602082019050615439600083018461506e565b92915050565b6000604082019050615454600083018561506e565b61546160208301846143ce565b9392505050565b600060808201905061547d600083018961506e565b81810360208301526154908187896143fb565b905081810360408301526154a581858761452b565b90506154b4606083018461506e565b979650505050505050565b6000819050919050565b6000819050602082019050919050565b6000819050602082019050919050565b6000819050602082019050919050565b600081519050919050565b600081519050919050565b600081519050919050565b600081519050919050565b600081519050919050565b6000602082019050919050565b6000602082019050919050565b6000602082019050919050565b6000602082019050919050565b600082825260208201905092915050565b600082825260208201905092915050565b600082825260208201905092915050565b600082825260208201905092915050565b600082825260208201905092915050565b600081905092915050565b600082825260208201905092915050565b600082825260208201905092915050565b60006155f56020840184613fd7565b905092915050565b600061560882615762565b915061561383615762565b9250827fffffffffffffffffffffffffffffffffffffffffffffffffffffffffffffffff038211156156485761564761583b565b5b828201905092915050565b600061565e82615762565b915061566983615762565b9250826156795761567861586a565b5b828204905092915050565b600061568f82615762565b915061569a83615762565b9250817fffffffffffffffffffffffffffffffffffffffffffffffffffffffffffffffff04831182151516156156d3576156d261583b565b5b828202905092915050565b60006156e982615762565b91506156f483615762565b9250828210156157075761570661583b565b5b828203905092915050565b600061571d82615742565b9050919050565b600061572f82615742565b9050919050565b60008115159050919050565b600073ffffffffffffffffffffffffffffffffffffffff82169050919050565b6000819050919050565b600065ffffffffffff82169050919050565b82818337600083830152505050565b60005b838110156157ab578082015181840152602081019050615790565b838111156157ba576000848401525b50505050565b600060028204905060018216806157d857607f821691505b602082108114156157ec576157eb615899565b5b50919050565b60006157fd82615762565b91507fffffffffffffffffffffffffffffffffffffffffffffffffffffffffffffffff8214156158305761582f61583b565b5b600182019050919050565b7f4e487b7100000000000000000000000000000000000000000000000000000000600052601160045260246000fd5b7f4e487b7100000000000000000000000000000000000000000000000000000000600052601260045260246000fd5b7f4e487b7100000000000000000000000000000000000000000000000000000000600052602260045260246000fd5b6000601f19601f8301169050919050565b6158e281615712565b81146158ed57600080fd5b50565b6158f981615724565b811461590457600080fd5b50565b61591081615736565b811461591b57600080fd5b50565b61592781615762565b811461593257600080fd5b50565b61593e8161576c565b811461594957600080fd5b5056fea2646970667358221220012019ee88430aef17ba234db100a66fde81baa7309d5c8dd2918b469a9dce3064736f6c63430008000033",
  "linkReferences": {},
  "deployedLinkReferences": {}
}